:1000000003308A000F2B0000A030E431201DA01225
:10001000E6060A008E30F7003F08F8003E08F900B7
:10002000FA01F808031D1E287908F800F9010830C4
:10003000F702F808031D1E28F70126280310F81BF5
:100040002528F90DF80DF7031E28F8138A110A1256
:100050009F2B3E080319EE28CA0042080319EE2818
:10006000CA02031C38287F30CA070318EE283E282E
:100070008130CA02031CEE280319EE284A08F70053
:10008000F801F901FA01C9013F08C800C817400882
:10009000C7004108C6001930CA004508C602031847
:1000A00061280130C70203186128C80203186128BB
:1000B000C90203186128C90AC80AC70A4508C60741
:1000C00093284408C70203187C280130C80203188B
:1000D0007C28C90203187C28C90AC80A4408C70733
:1000E0004508C607031C9328C70A031D9328C80A9E
:1000F000031D9328C90A932843088038C8020318AF
:1001000092280130C90203189228C90A430880388E
:10011000C8074408C707031C7028C80A031D7028B5
:10012000C90A70287A14CA0B9628A1280310C60D94
:10013000C70DC80DC90D0310FA0DF90DF80DCB0D43
:100140004D284B1CA9280310F80CF90CFA0CCB0C09
:10015000AC28F7030319EE28CB1BD5280310C60DD6
:10016000C70DC80DC90D4508C6020318C1280130C6
:10017000C7020318C128C8020318C128C902031CFA
:10018000E4284408C7020318CC280130C802031829
:10019000CC28C902031CE42843088038C80203188D
:1001A000D5280130C902031CE428FA0A031DE428FB
:1001B000F90A031DE428F80A031DE428F70A0319C5
:1001C000EE28F80CF90CFA0C3F08CA004308CA06DE
:1001D000CA1FEC28F817F228F813F228F701F801E3
:1001E000F901FA018A110A12B82B0B08BF008B1310
:1001F000831603178C170C140000000083120313DE
:10020000BF1B8B1703182D2903170C087F39031305
:10021000BF0003170D080313C00003170F080313D3
:10022000C1003F080C1E12299900400803178D00D9
:100230000313410803178F0003130B08C2008B132D
:10024000831603178C170C1400000000831203138D
:10025000C21B8B17BE0B2D294D2903170C0D0E0D3C
:100260007F390313BF0003170D080313C0000317E2
:100270000F080313C1003F080C1E3C2999004008D9
:1002800003178D000313410803178F008D0A03190C
:100290008F0A03100313BE0BF5288A110A12CA2B0A
:1002A00083185529533084008313F701F801F901AD
:1002B000FA01D301D401D501D601520851045004EA
:1002C0004F04031993292030D7000310CB0DCC0D18
:1002D000CD0DCE0DD30DD40DD50DD60D5208560231
:1002E000031D7C2951085502031D7C295008540226
:1002F000031D7C294F085302031C8D294F08D3028C
:100300005008031C500FD4025108031C510FD50292
:100310005208031C520FD6020314F70DF80DF90D05
:10032000FA0DD70B652953088000840A5408800011
:10033000840A55088000840A5608800008000408D2
:10034000C3004208C5000319312A4108CE00400805
:10035000CD003F08CC003E08CB00D201D1012030B7
:10036000D0008230CF004B080319232AD3004F0856
:100370000319232AD3070318C4297F30D302031C8F
:10038000232A0319232AC8298130D3070318232AD3
:100390005308F700F801F901FA014C08D700D71704
:1003A0004D08D6004E08D5001830D300D401551C96
:1003B000F1295208FA07031CE329F90A031DE3296E
:1003C000F80A0319D4175108F907031CEA29F80A97
:1003D0000319D4175008CD00CD174D08F80703189E
:1003E000D417D40DF80CF90CFA0CD70CD60CD50C8C
:1003F0000310D30BD6290130F7070318232AF81B63
:10040000082AD70DFA0DF90DF80DF7030319232A61
:10041000D71F192AFA0A031D192AF90A031D192AD6
:10042000F80A031D192AF80CF90CFA0CF70A03193B
:10043000232A4C08D4005008D406D41F212AF817C8
:10044000272AF813272AF701F801F901FA017A0897
:10045000C1007908C0007808BF007708BE00C50B4E
:10046000A5294108CE004008CD003F08CC003E0839
:10047000CB004B08B63CCB00FA014C08CF00CC17A0
:100480000310CC0CCD0CCE0CFA0CF90CF80CF70CBC
:10049000CB0B402ACF1F572AF709F809F909FA09A7
:1004A000F70A0319F80A0319F90A0319FA0A7A086C
:1004B000C1007908C0007808BF007708BE00C11FDE
:1004C0006E2AC303C316BE09BF09C009C109BE0A0B
:1004D0000319BF0A0319C00A0319C10A3B30CA0035
:1004E0009A30C900CA30C800C7010A30C5004208A6
:1004F0000319C30A83143E30840083134108CE00DD
:100500004008CD003F08CC003E08CB004A08D2008E
:100510004908D1004808D0004708CF00502178088A
:10052000F708031DA62A420A45020319A62A430812
:100530000319A82A0F3945020319A02A0318DC2A37
:10054000C31BDC2A431BA82A2030D72A2030C3052E
:10055000C31EB72AC3124208031DC3037708C30092
:100560002D300C1EB12A99004308F700C301420840
:100570004502031DC62A7708C3002E300C1EBE2A72
:1005800099004308F7002030C30500303030C31E07
:10059000D72AC3124208031DC3037708C3002D30B6
:1005A0000C1ED02A99004308F700C3013030F7072A
:1005B00077080C1ED92A990083104A08CE004908F2
:1005C000CD004808CC004708CB00D201D101D001B2
:1005D0000A30CF0050217A08CA007908C90078088B
:1005E000C8007708C700C50B7A2A8A110A12D72BD0
:1005F0003E3084008313000803190C2B0530F800EB
:10060000F701F70B012BF80B002B2E30F700F70B3F
:10061000072B0A2B800BFE2A8A110A12E22B0308F1
:100620001F398300831603178715A0300313990021
:1006300001309A00A6309800903083129800A301F0
:10064000A201A101A001A401FF30A5008316031798
:100650000908C039890003131F129F1200300317C5
:1006600088008312870188018901831301300313F5
:10067000A6000230A7000430A8000830A9001030FE
:10068000AA002030AB004030AC008030AD003F30DD
:10069000AE000630AF005B30B0004F30B1006630C6
:1006A000B2006D30B3007D30B4000730B5007F304C
:1006B000B6006F30B7007730B8007C30B900393001
:1006C000BA005E30BB007930BC007130BD008316CB
:1006D00003170908C039890003131F129F12013044
:1006E00003178800831203131F179F1783169F1782
:1006F00083121F140030831686008800860183123F
:10070000860183168801831288010030F8001F08D3
:10071000C33978049F000D30F700F70B8D2B9F1421
:100720009F18902B1E08F90083161E08F800790800
:10073000FA001E088312BE007908BF000A287A0852
:10074000A3007908A2007808A1007708A000230878
:10075000C1002208C0002108BF002008BE004830A8
:10076000C500E130C4004830C3008430C2002928ED
:100770007A08A3007908A2007808A1007708A000F1
:10078000043003178D0000308F000310073003136F
:10079000BE00F528893084002308C1002208C0006B
:1007A0002108BF002008BE000230C2009F290D3082
:1007B0000C1ED82B99000A300C1EDC2B9900C83077
:0807C000BE00F82A852B63003E
:04400E00E22FFF3F5F
:00000001FF
;PIC16F887
;CRC=D5F8  CREATED="22-Ara-23 01:44"
