:1000000004308A009D2C0000ED32F330E632A01E51
:10001000A012E6060A00D332EC31F5352023F53183
:10002000EB346E00CB24DA24520058308400831362
:100030000008031929280530F800F701F70B1E28DE
:10004000F80B1D282E30F700F70B24282728800BEB
:100050001B2808005E182E2808102F280814831665
:1000600008108312DE183628881037288814831663
:10007000881083125E193E2808113F280815831640
:1000800008118312DE19462888114728881583161F
:10009000881100008312071520112008831687009D
:1000A0000230F700F70B52280000831207112011CD
:1000B00020088316870083120800DF0183160814C6
:1000C0000030831208180130DF04831688140030D2
:1000D000831288180130F7000310F70D7708DF044A
:1000E000831608150030831208190130F700F70D48
:1000F000F70DFC30F7057708DF048316881500300C
:10010000831288190130F700F70DF70DF70DF8305D
:10011000F7057708DF045F08F800080020112008C1
:10012000831687008312A01120088316870083128C
:10013000A01020088316870083128711A0112008C1
:1001400083168700081488140815881583128714ED
:10015000A0102008831687000000831207152011C5
:10016000200883168700000083125D207808DE00D7
:10017000071120112008831687000000831207153D
:100180002011200883168700C528C62883125D2009
:100190007808DD0007112011200883168700081059
:1001A00088100811881183125E0EF700F030F705F1
:1001B00077085D04F8007808DD00DD1FE12883166C
:1001C000A228DB08031DE6288711E7288715A01160
:1001D000200883168700000083128710A0102008D3
:1001E0008316870000008312071120112008831650
:1001F000870083125C0EDD000F30DD055D08DE0038
:100200002A205C080F39DD00DE002A200800283093
:10021000D4000C30D5000130D6000630D7000711CD
:10022000201120088316870083128711A01120084F
:100230008316870083128710A0102008831687007A
:1002400008108810081188118312201120088316C5
:1002500087008312A0112008831687008312A01044
:100260002008831687000F308312D8001520013034
:10027000D3005308033C031C45290330DE002A2029
:100280000530D8001520D30A39290230DE002A2093
:100290000530D8001520D3015308033C031C5C290A
:1002A00054305307840083130008D800DB0158083A
:1002B000DC008E20D30A4C298A110A12CF2C580B4D
:1002C000622965294030D9006629D90101305702D9
:1002D000D90759088038DA00DB015A08DC008E2083
:1002E00008005608073A03197F290B3A0319842995
:1002F000063A03198C29023A0319922997290130E9
:10030000D700D8005F219C29DB010130DC008E2062
:100310000230D80015209C290130D7000230D800C7
:100320005F219C29DB011030DC008E209C290130EC
:10033000DB005608DC008E2008000B08D3008B136E
:10034000831603178C170C1400000000831203138C
:10035000D31B8B1703170C087F390319F1290313DB
:10036000D30003170D080313D40003170F0803135A
:10037000D5005308D6007121540803178D000313CC
:10038000550803178F0003130B08D6008B13831631
:1003900003178C170C140000000083120313D61BE4
:1003A0008B1703170C0D0E0D7F390319F129031359
:1003B000D30003170D080313D40003170F0803130A
:1003C000D5005308D6007121540803178D0003137C
:1003D000550803178F008D0A03198F0A03139D29EF
:1003E000031703130800831689100230831289064D
:1003F0008A110A12E72C610803196B2AE9006508C3
:1004000003196B2AE90703180C2A7F30E902031C41
:100410006B2A03196B2A102A8130E90703186B2A0B
:100420006908F700F801F901FA016208ED00ED171B
:100430006308EC006408EB001830E900EA016B1C6B
:10044000392A6808FA07031C2B2AF90A031D2B2AEC
:10045000F80A0319EA176708F907031C322AF80A91
:100460000319EA176608E300E3176308F80703189F
:10047000EA17EA0DF80CF90CFA0CED0CEC0CEB0C8D
:100480000310E90B1E2A0130F70703186B2AF81B2B
:10049000502AED0DFA0DF90DF80DF70303196B2A2B
:1004A000ED1F612AFA0A031D612AF90A031D612A58
:1004B000F80A031D612AF80CF90CFA0CF70A031963
:1004C0006B2A6208EA006608EA06EA1F692AF8173A
:1004D0006F2AF8136F2AF701F801F901FA010800F1
:1004E0008318752A693084008313F701F801F90134
:1004F000FA01E901EA01EB01EC016808670466040E
:1005000065040319B32A2030ED000310E10DE20D5C
:10051000E30DE40DE90DEA0DEB0DEC0D68086C023E
:10052000031D9C2A67086B02031D9C2A66086A0249
:10053000031D9C2A65086902031CAD2A6508E902AF
:100540006608031C660FEA026708031C670FEB02CC
:100550006808031C680FEC020314F70DF80DF90D81
:10056000FA0DED0B852A69088000840A6A0880006C
:10057000840A6B088000840A6C0880000800040864
:10058000D9005808DB000319DE2A5708E400560892
:10059000E3005508E2005408E100E801E7012030DB
:1005A000E6008230E500FB217A08D7007908D60002
:1005B0007808D5007708D400DB0BC52A5708E4007B
:1005C0005608E3005508E2005408E1006108B63C13
:1005D000E100FA016208E500E2170310E20CE30C07
:1005E000E40CFA0CF90CF80CF70CE10BED2AE51F02
:1005F000042BF709F809F909FA09F70A0319F80AA7
:100600000319F90A0319FA0A7A08D7007908D600FB
:100610007808D5007708D400D71F1B2BD903D9162B
:10062000D409D509D609D709D40A0319D50A03195B
:10063000D60A0319D70A3B30E0009A30DF00CA30EF
:10064000DE00DD010A30DB0058080319D90A8314E3
:100650005430840083135708E4005608E30055081B
:10066000E2005408E1006008E8005F08E7005E0867
:10067000E6005D08E50070227808F708031D532B9B
:10068000580A5B020319532B59080319552B0F39CC
:100690005B0203194D2B0318892BD91B892B591B7E
:1006A000552B2030842B2030D905D91E642BD9122C
:1006B0005808031DD9037708D9002D300C1E5E2B76
:1006C00099005908F700D90158085B02031D732BE4
:1006D0007708D9002E300C1E6B2B99005908F700B3
:1006E0002030D90500303030D91E842BD91258085B
:1006F000031DD9037708D9002D300C1E7D2B9900DE
:100700005908F700D9013030F70777080C1E862BFF
:10071000990083106008E4005F08E3005E08E200CF
:100720005D08E100E801E701E6010A30E50070221A
:100730007A08E0007908DF007808DE007708DD003D
:10074000DB0B272B8A110A12922C05309000D30163
:100750005308093C031C242C831606128312061628
:100760000A30D8001520831606128312061283164B
:1007700086168312861EB72B8E018F018E01000014
:10078000831686168312861AC02B0F08FA000E08ED
:10079000F7000F087A02031DC52B7708D4007A08EA
:1007A000D5008E30F7005508F8005408F900FA011A
:1007B000F808031DE52B7908F800F9010830F70265
:1007C000F808031DE52BF701ED2B0310F81BEC2BAC
:1007D000F90DF80DF703E52BF8137A08A80079084E
:1007E000A7007808A6007708A5002808E4002708D5
:1007F000E3002608E2002508E100B330E8007B3082
:10080000E7007230E6007630E500FB217A08A400AC
:100810007908A3007808A2007708A100530DF7001B
:10082000F70DFC30F7057708293E84008313210873
:100830008000840A22088000840A23088000840A39
:1008400024088000D30AA82B043003178D00003041
:100850008F00031009300313D4000B08D5008B134D
:10086000831603178C170C14000000008312031367
:10087000D51B8B170318652C03170C087F3903133E
:10088000D50003170D080313D60003170F08031331
:10089000D70055080C1E4A2C9900560803178D00E6
:1008A0000313570803178F0003130B08D8008B138B
:1008B000831603178C170C14000000008312031317
:1008C000D81B8B17D40B652C852C03170C0D0E0D24
:1008D0007F390313D50003170D080313D600031740
:1008E0000F080313D70055080C1E742C99005608E6
:1008F00003178D000313570803178F008D0A031980
:100900008F0A03100313D40B2D2C89308400240884
:10091000D7002308D6002208D5002108D4000230D1
:10092000D800BF2A0D300C1E932C99000A300C1EE3
:10093000972C99008A110A12E82C03081F398300AA
:10094000831603178715A0300313990001309A000E
:10095000A6309800903083129800FF30A000D2019A
:10096000D101831603170908C039890003131F1228
:100970009F120030031788008312870188018901C4
:100980008313831603138601FF30831286008316B8
:100990008600003088008801831288010729013011
:1009A000D700D8005F210B3003178D0000308F0077
:1009B00003139D210130D7000230D8005F2112308F
:1009C00003178D0000308F0003139D21F329A52B01
:0A09D000C830D8001520E62C6300A3
:04400E00E22FFF3F5F
:00000001FF
;PIC16F887
;CRC=B926  CREATED="22-Ara-23 03:21"
