:1000000001308A00FB290000ED32F330E632A01EF9
:10001000A012E6060A00D332EC31F5352023F53183
:10002000EB346E00CB24DA24520058308400831362
:100030000008031929280530F800F701F70B1E28DE
:10004000F80B1D282E30F700F70B24282728800BEB
:100050001B2808005E182E2808102F280814831665
:1000600008108312DE183628881037288814831663
:10007000881083125E193E2808113F280815831640
:1000800008118312DE19462888114728881583161F
:10009000881100008312071520112008831687009D
:1000A0000230F700F70B52280000831207112011CD
:1000B00020088316870083120800DF0183160814C6
:1000C0000030831208180130DF04831688140030D2
:1000D000831288180130F7000310F70D7708DF044A
:1000E000831608150030831208190130F700F70D48
:1000F000F70DFC30F7057708DF048316881500300C
:10010000831288190130F700F70DF70DF70DF8305D
:10011000F7057708DF045F08F800080020112008C1
:10012000831687008312A01120088316870083128C
:10013000A01020088316870083128711A0112008C1
:1001400083168700081488140815881583128714ED
:10015000A0102008831687000000831207152011C5
:10016000200883168700000083125D207808DE00D7
:10017000071120112008831687000000831207153D
:100180002011200883168700C528C62883125D2009
:100190007808DD0007112011200883168700081059
:1001A00088100811881183125E0EF700F030F705F1
:1001B00077085D04F8007808DD00DD1FE12883166C
:1001C000A228DB08031DE6288711E7288715A01160
:1001D000200883168700000083128710A0102008D3
:1001E0008316870000008312071120112008831650
:1001F000870083125C0EDD000F30DD055D08DE0038
:100200002A205C080F39DD00DE002A200800283093
:10021000D4000C30D5000130D6000630D7000711CD
:10022000201120088316870083128711A01120084F
:100230008316870083128710A0102008831687007A
:1002400008108810081188118312201120088316C5
:1002500087008312A0112008831687008312A01044
:100260002008831687000F308312D8001520013034
:10027000D3005308033C031C45290330DE002A2029
:100280000530D8001520D30A39290230DE002A2093
:100290000530D8001520D3015308033C031C5C290A
:1002A00054305307840083130008D800DB0158083A
:1002B000DC008E20D30A4C298A110A12212A580BFD
:1002C000622965294030D9006629D90101305702D9
:1002D000D90759088038DA00DB015A08DC008E2083
:1002E00008005608073A03197F290B3A0319842995
:1002F000063A03198C29023A0319922997290130E9
:10030000D700D8005F219C29DB010130DC008E2062
:100310000230D80015209C290130D7000230D800C7
:100320005F219C29DB011030DC008E209C290130EC
:10033000DB005608DC008E2008000B08D3008B136E
:10034000831603178C170C1400000000831203138C
:10035000D31B8B1703170C087F390319F1290313DB
:10036000D30003170D080313D40003170F0803135A
:10037000D5005308D6007121540803178D000313CC
:10038000550803178F0003130B08D6008B13831631
:1003900003178C170C140000000083120313D61BE4
:1003A0008B1703170C0D0E0D7F390319F129031359
:1003B000D30003170D080313D40003170F0803130A
:1003C000D5005308D6007121540803178D0003137C
:1003D000550803178F008D0A03198F0A03139D29EF
:1003E000031703130800831689100230831289064D
:1003F0008A110A12392A03081F398300831603174A
:100400008715A0300313990001309A00A630980098
:10041000903083129800FF30A000D201D1018316E2
:1004200003170908C039890003131F129F120030F7
:10043000031788008312870188018901831303133E
:1004400007290130D700D8005F210B3003178D003A
:1004500000308F0003139D210130D7000230D800F7
:100460005F21123003178D0000308F0003139D2190
:0C047000F329C830D8001520382A63009A
:04400E00E22FFF3F5F
:00000001FF
;PIC16F887
;CRC=16A1  CREATED="22-Ara-23 02:45"
