:1000000002308A00CA2A0000ED32F330E632A01E28
:10001000A012E6060A0083168910023083128906B0
:100020008A110A12F82A5130840083130008031938
:1000300027280530F800F701F70B1C28F80B1B28C0
:100040002E30F700F70B22282528800B19280800EE
:100050005E0803199828E600620803199828E60745
:10006000031839287F30E602031C982803199828C2
:100070003D288130E607031898286608F700F80144
:10008000F901FA015F08EA00EA176008E90061086F
:10009000E8001830E600E701681C66286508FA07E2
:1000A000031C5828F90A031D5828F80A0319E717F2
:1000B0006408F907031C5F28F80A0319E7176308A7
:1000C000E000E0176008F8070318E717E70DF80CE1
:1000D000F90CFA0CEA0CE90CE80C0310E60B4B28BF
:1000E0000130F70703189828F81B7D28EA0DFA0D50
:1000F000F90DF80DF70303199828EA1F8E28FA0A5C
:10010000031D8E28F90A031D8E28F80A031D8E2868
:10011000F80CF90CFA0CF70A031998285F08E700A5
:100120006308E706E71F9628F8179C28F8139C2811
:10013000F701F801F901FA0108008318A2286630D6
:1001400084008313F701F801F901FA01E601E701E0
:10015000E801E90165086404630462040319E02806
:100160002030EA000310DE0DDF0DE00DE10DE60D9D
:10017000E70DE80DE90D65086902031DC92864084B
:100180006802031DC92863086702031DC9286208A5
:100190006602031CDA286208E6026308031C630F88
:1001A000E7026408031C640FE8026508031C650F7E
:1001B000E9020314F70DF80DF90DFA0DEA0BB22858
:1001C00066088000840A67088000840A6808800046
:1001D000840A6908800008000408D6005508D80081
:1001E00003190B295408E1005308E0005208DF000E
:1001F0005108DE00E501E4012030E3008230E20036
:1002000028207A08D4007908D3007808D20077082B
:10021000D100D80BF2285408E1005308E00052083E
:10022000DF005108DE005E08B63CDE00FA015F0820
:10023000E200DF170310DF0CE00CE10CFA0CF90C04
:10024000F80CF70CDE0B1A29E21F3129F709F8091F
:10025000F909FA09F70A0319F80A0319F90A03193F
:10026000FA0A7A08D4007908D3007808D20077080F
:10027000D100D41F4829D603D616D109D209D309F3
:10028000D409D10A0319D20A0319D30A0319D40ACB
:100290003B30DD009A30DC00CA30DB00DA010A3086
:1002A000D80055080319D60A8314513084008313EB
:1002B0005408E1005308E0005208DF005108DE0056
:1002C0005D08E5005C08E4005B08E3005A08E20012
:1002D0009D207808F708031D8029550A5802031944
:1002E00080295608031982290F39580203197A29DF
:1002F0000318B629D61BB629561B82292030B129EE
:100300002030D605D61E9129D6125508031DD603D6
:100310007708D6002D300C1E8B2999005608F7005F
:10032000D60155085802031DA0297708D6002E30A3
:100330000C1E982999005608F7002030D605003089
:100340003030D61EB129D6125508031DD6037708C2
:10035000D6002D300C1EAA2999005608F700D601A8
:100360003030F70777080C1EB329990083105D0819
:10037000E1005C08E0005B08DF005A08DE00E501F0
:10038000E401E3010A30E2009D207A08DD007908EB
:10039000DC007808DB007708DA00D80B54298A11D2
:1003A0000A12BF2A05309000D0015008093C031CF6
:1003B000512A83160612831206160A30D100132022
:1003C0008316061283120612831686168312861E61
:1003D000E4298E018F018E01000083168616831298
:1003E000861AED290F08FA000E08F7000F087A02A6
:1003F000031DF2297708D1007A08D2008E30F70069
:100400005208F8005108F900FA01F808031D122AF1
:100410007908F800F9010830F702F808031D122ADC
:10042000F7011A2A0310F81B192AF90DF80DF70322
:10043000122AF8137A08A7007908A6007808A50000
:100440007708A4002708E1002608E0002508DF005F
:100450002408DE00B330E5007B30E4007230E300B6
:100460007630E20028207A08A3007908A2007808F4
:10047000A1007708A000500DF700F70DFC30F7053C
:100480007708283E8400831320088000840A21080E
:100490008000840A22088000840A23088000D00A91
:1004A000D529043003178D0000308F000310093068
:1004B0000313D1000B08D2008B13831603178C177C
:1004C0000C140000000083120313D21B8B170318B7
:1004D000922A03170C087F390313D20003170D0863
:1004E0000313D30003170F080313D40052080C1E84
:1004F000772A9900530803178D0003135408031734
:100500008F0003130B08D5008B13831603178C176A
:100510000C140000000083120313D51B8B17D10BA2
:10052000922AB22A03170C0D0E0D7F390313D20045
:1005300003170D080313D30003170F080313D40088
:1005400052080C1EA12A9900530803178D000313AB
:10055000540803178F008D0A03198F0A0310031321
:10056000D10B5A2A893084002308D4002208D300F2
:100570002108D2002008D1000230D500EC280D302F
:100580000C1EC02A99000A300C1EC42A99008A1138
:100590000A12F92A03081F398300831603178715E7
:1005A000A0300313990001309A00A63098009030D3
:1005B00083129800831603170908C03989000313B2
:1005C0001F129F12003003178800831287018801D1
:1005D00089018313831603138601FF30831286007B
:1005E00083168600003088008801831288010B285A
:0C05F000D229C830D1001320F72A630084
:04400E00E22FFF3F5F
:00000001FF
;PIC16F887
;CRC=2714  CREATED="21-Ara-23 02:18"
