:100000000D308A004D2D00000A108A100A11820757
:10001000A0340034A7340034AE340034E33084001C
:1000200083130008031922280530F800F701F70BA5
:100030001728F80B16282E30F700F70B1D2820285C
:10004000800B142808008E30F70003173508F800DD
:100050003408F900FA01F808031D38287908F80077
:10006000F9010830F702F808031D3828F701402885
:100070000310F81B3F28F90DF80DF7033828F81383
:1000800003130800031730080319B328B800340815
:100090000319B328B807031854287F30B802031C8B
:1000A000B3280319B32858288130B8070318B32898
:1000B0003808F700F801F901FA013108BC00BC1753
:1000C0003208BB003308BA001830B800B9013A1C36
:1000D00081283708FA07031C7328F90A031D7328BF
:1000E000F80A0319B9173608F907031C7A28F80A21
:1000F0000319B9173508B200B2173208F807031808
:10010000B917B90DF80CF90CFA0CBC0CBB0CBA0CF5
:100110000310B80B66280130F7070318B328F81B43
:100120009828BC0DFA0DF90DF80DF7030319B32843
:10013000BC1FA928FA0A031DA928F90A031DA9282A
:10014000F80A031DA928F80CF90CFA0CF70A031990
:10015000B3283108B9003508B906B91FB128F81716
:10016000B728F813B728F701F801F901FA010313CA
:100170000800053090008316C3014308043C031CAB
:100180004729761076088700831207140A308316F1
:10019000E30083120E207610760883168700831200
:1001A0000710F6147608831687008312871CD1285F
:1001B0008E018F018E010000F614760883168700E9
:1001C00083128718DC280F08FA000E08F7000F08C2
:1001D0007A02031DE32877080317B4007A08B500F4
:1001E000031323207A08B4007908B3007808B2001A
:1001F0007708B10034080317B3000313330803175B
:10020000B200031332080317B100031331080317B8
:10021000B000B330B7007B30B6007230B500763036
:10022000B400031342207A088316C7007908C60079
:100230007808C5007708C400470883120317B30085
:1002400083160313460883120317B20083160313A1
:10025000450883120317B100831603134408831261
:100260000317B0000A30B700D730B6002330B5000E
:100270007830B400031342207A08A4007908A30060
:100280007808A2007708A1008316C30ABD280530AC
:10029000831290008316C3014308043C031CCE293B
:1002A0000611831206150A308316E30083120E200E
:1002B0008316061183120611831686158312861D76
:1002C0005C298E018F018E01000083168615831232
:1002D000861965290F08FA000E08F7000F087A0240
:1002E000031D6A2977080317B4007A08B5000313C1
:1002F00023207A08B4007908B3007808B2007708A0
:10030000B10034080317B300031333080317B20016
:10031000031332080317B100031331080317B000A9
:10032000B330B7007B30B6007230B5007630B40021
:10033000031342207A088316C7007908C60078089C
:10034000C5007708C400470883120317B30083165B
:100350000313460883120317B200831603134508DC
:1003600083120317B1008316031344088312031783
:10037000B0000A30B700D730B6002330B50078306F
:10038000B400031342207A08AC007908AB00780867
:10039000AA007708A9008316C30A4C296400B93063
:1003A000A5000030A6008A150A128312202F031719
:1003B000300803199D2ABC00340803199D2ABC0289
:1003C000031CE7297F30BC0703189D2AED298130E3
:1003D000BC02031C9D2A03199D2A3C08F700F80162
:1003E000F901FA01BB013108BA00BA173208B900A5
:1003F0003308B8001930BC003708B8020318102AB7
:100400000130B9020318102ABA020318102ABB02DD
:100410000318102ABB0ABA0AB90A3708B807422AD1
:100420003608B90203182B2A0130BA0203182B2A06
:10043000BB0203182B2ABB0ABA0A3608B9073708C9
:10044000B807031C422AB90A031D422ABA0A031D2F
:10045000422ABB0A422A35088038BA020318412AC8
:100460000130BB020318412ABB0A35088038BA079D
:100470003608B907031C1F2ABA0A031D1F2ABB0A24
:100480001F2A7A14BC0B452A502A0310B80DB90D47
:10049000BA0DBB0D0310FA0DF90DF80DBD0DFC29B9
:1004A0003D1C582A0310F80CF90CFA0CBD0C5B2A01
:1004B000F70303199D2ABD1B842A0310B80DB90D3B
:1004C000BA0DBB0D3708B8020318702A0130B90203
:1004D0000318702ABA020318702ABB02031C932A5D
:1004E0003608B90203187B2A0130BA0203187B2AA6
:1004F000BB02031C932A35088038BA020318842AE9
:100500000130BB02031C932AFA0A031D932AF90A3D
:10051000031D932AF80A031D932AF70A03199D2A3B
:10052000F80CF90CFA0C3108BC003508BC06BC1FED
:100530009B2AF817A12AF813A12AF701F801F9015B
:10054000FA0103130800831608110810881083129B
:1005500008108316081088150816881608178312C5
:10056000881483168810000083120815831608115A
:100570000000EB01881500308312881901308316C2
:10058000EB04081600308312081A0130F70003103C
:10059000F70D77088316EB04881600308312881A4B
:1005A0000130F700F70DF70DFC30F70577088316DB
:1005B000EB04081700308312081B0130F700F70D19
:1005C000F70DF70DF830F70577088316EB046B0885
:1005D000F8007808EA008312081183160811000059
:1005E0008312081583160811F52AF62AEB018815DF
:1005F00000308312881901308316EB04081600308E
:100600008312081A0130F7000310F70D77088316DC
:10061000EB04881600308312881A0130F700F70DBA
:10062000F70DFC30F70577088316EB040817003048
:100630008312081B0130F700F70DF70DF70DF830A6
:10064000F70577088316EB046B08F8007808E900D3
:1006500083120811831608118811081288120813D2
:100660006A0EF700F030F70577086904F80078089B
:10067000E900E91BAB2AE708031D422B831208108F
:10068000442B83168312081483160810000083126B
:100690008810831688100000831208118316081131
:1006A000680EE9000F30E9056908EA006A185C2B5A
:1006B000831288115E2B8316831288158316881186
:1006C000EA18662B83120812682B83168312081609
:1006D000831608126A19702B83128812722B8316E4
:1006E0008312881683168812EA197A2B831208134C
:1006F0007C2B8316831208178316081300008312BD
:100700000815831608110230F700F70B852B00003F
:10071000831208118316081168080F39E900690867
:10072000EA006A18972B83128811992B831683127B
:10073000881583168811EA18A12B83120812A32B9F
:10074000831683120816831608126A19AB2B8312BC
:100750008812AD2B83168312881683168812EA1925
:10076000B52B83120813B72B831683120817831631
:100770000813000083120815831608110230F700D1
:10078000F70BC02B00008312081183160811831287
:10079000080083166208073A83120319D92B0B3A13
:1007A0000319F02B063A0319FC2B023A0319142CF7
:1007B0001B2C01308316E300E400640BE02BE32BD9
:1007C0004030E500E42BE50101306302E5076508F0
:1007D0008038E600E7016608E8008312A322222C95
:1007E0008316E7010130E8008312A322023083164A
:1007F000E30083120E20222C01308316E300023026
:10080000E400640B042C072C4030E500082CE501C3
:1008100001306302E50765088038E600E7016608F5
:10082000E8008312A322222C8316E7011030E8008F
:100830008312A322222C01308316E7006208E8000D
:100840008312A322080003171D08B63C9D00FA017D
:100850001E08A1009E1703109E0C9F0CA00CFA0C02
:10086000F90CF80CF70C9D0B2B2CA11F422CF7094F
:10087000F809F909FA09F70A0319F80A0319F90A34
:100880000319FA0A031308008318492C2530840041
:100890008317F701F801F901FA010317A501A60171
:1008A000A701A80124082304220421040319882C89
:1008B0002030A90003109D0D9E0D9F0DA00DA50DCC
:1008C000A60DA70DA80D24082802031D712C2308CE
:1008D0002702031D712C22082602031D712C2108FA
:1008E0002502031C822C2108A5022208031C220FCA
:1008F000A6022308031C230FA7022408031C240FAD
:10090000A8020314F70DF80DF90DFA0DA90B5A2CD6
:1009100025088000840A26088000840A27088000B1
:10092000840A280880000313080004088316DA00EC
:100930005908DC000319C52C580883120317B300AB
:1009400083160313570883120317B2008316031389
:10095000560883120317B100831603135508831238
:100960000317B000B701B6012030B5008230B400E3
:10097000031342207A088316D8007908D700780834
:10098000D6007708D500DC0B9C2C5808831203177F
:10099000A000831603135708831203179F008316C2
:1009A00003135608831203179E008316031355087A
:1009B000831203179D00031323247A088316D8009B
:1009C0007908D7007808D6007708D500D81FF52C0D
:1009D000DA03DA16D509D609D709D809D50A0319D1
:1009E000D60A0319D70A0319D80A3B30E1009A3016
:1009F000E000CA30DF00DE010A30DC0059080319CC
:100A0000DA0A8314D530840083135808831203173D
:100A1000A000831603135708831203179F00831641
:100A200003135608831203179E00831603135508F9
:100A3000831203179D0083160313610883120317A3
:100A4000A40083160313600883120317A300831600
:100A500003135F0883120317A200831603135E08B3
:100A600083120317A100031344247808F708031D19
:100A7000502D8316590A5C02031D402D8312502D00
:100A80005A080319532D0F395C020319492D031815
:100A90008B2DDA1B8B2D5A1B532D2030852D831265
:100AA00020308316DA05DA1E632DDA125908031D89
:100AB000DA037708DA002D30E2008312C9238316A7
:100AC0005A08F700DA0159085C02031D732D7708F4
:100AD000DA002E30E2008312C92383165A08F70089
:100AE0002030DA0500303030DA1E852DDA12590850
:100AF000031DDA037708DA002D30E2008312C923E0
:100B000083165A08F700DA013030F7077708E20059
:100B10008312C92383168310610883120317A00070
:100B2000831603136008831203179F0083160313B1
:100B30005F08831203179E00831603135E08831257
:100B400003179D00A401A301A2010A30A100031311
:100B500044247A088316E1007908E0007808DF0071
:100B60007708DE00DC0B012D8312080083160317C3
:100B70000908C039890003131F129F12013003179F
:100B800088000030F800831203131F08C33978046B
:100B90009F001A30F700F70BCB2D00009F149F1811
:100BA000CF2D1E08F90083161E08F8007908FA00F8
:100BB0001E0883120317B4007908B500031323201D
:100BC0007A08B8007908B7007808B6007708B50049
:100BD00038080317B300031337080317B2000313D1
:100BE00036080317B100031335080317B000483067
:100BF000B700E130B6004830B5008430B4000313CC
:100C0000D7217A08B8007908B7007808B6007708C5
:100C1000B5003808C4003708C3003608C2003508DC
:100C2000C1001A30F700F70B132E000083160317CC
:100C30000908C039890003131F129F1200300317DF
:100C400088000908C039890003131F129F1202305F
:100C5000031788000430F800831203131F08C339F8
:100C600078049F001A30F700F70B342E00009F1411
:100C70009F18382E1E08F90083161E08F800790800
:100C8000FA001E0883120317B4007908B500031395
:100C900023207A08BC007908BB007808BA007708DE
:100CA000B9003C080317B30003133B080317B20055
:100CB00003133A080317B100031339080317B000F0
:100CC0004830B700E130B6004830B5008430B40099
:100CD0000313D7217A08BC007908BB007808BA0052
:100CE0007708B9003C08C8003B08C7003A08C600AE
:100CF0003908C500831603170908C0398900031392
:100D00001F129F120030031788000908C03989009C
:100D100003131F129F120430031788000830F800D5
:100D2000831203131F08C33978049F001A30F70099
:100D3000F70B982E00009F149F189C2E1E08F90098
:100D400083161E08F8007908FA001E08831203179C
:100D5000B4007908B500031323207A08C00079088D
:100D6000BF007808BE007708BD0040080317B30035
:100D700003133F080317B20003133E080317B10023
:100D800003133D080317B0004830B700E130B60048
:100D90004830B5008430B4000313D7217A08C0006E
:100DA0007908BF007808BE007708BD004008CC0075
:100DB0003F08CB003E08CA003D08C9008316031750
:100DC0000908C039890003131F129F12003003174E
:100DD00088000313E7010F30E8008312A3220130DB
:100DE0008316E300E400640BF62EF92E4030E50094
:100DF000FA2EE50101306302E50765088038E60058
:100E0000E7016608E8008312A32254308316E2004B
:100E10008312C9233A308316E2008312C923893032
:100E2000840024088316D800831223088316D70071
:100E3000831222088316D600831221088316D50058
:100E40000230D9008312952420308316E2008312E9
:100E5000C92344308316E2008312C9233A30831633
:100E6000E2008312C923893084002C088316D8003D
:100E700083122B088316D70083122A088316D60004
:100E8000831229088316D5000230D90083129524D5
:100E900001308316E3000230E400640B502F532F1F
:100EA0004030E500542FE50101306302E507650895
:100EB0008038E600E7016608E8008312A32270305C
:100EC0008316E2008312C9233A308316E2008312AC
:100ED000C9238930840044088316D800831243084C
:100EE0008316D700831242088316D6008312410866
:100EF0008316D5000230D9008312952464308316FE
:100F0000E2008312C9233A308316E2008312C92318
:100F10008930840048088316D80083124708831656
:100F2000D700831246088316D6008312450883161D
:100F3000D5000230D9008312952469308316E2006F
:100F40008312C9233A308316E2008312C923893001
:100F500084004C088316D80083124B088316D700F0
:100F600083124A088316D600831249088316D500D7
:100F70000230D90083129524B6308316AC000530B8
:100F8000AD008A150A128312202F8E30F700031746
:100F90003008F7023108F9003208F800F917F708AD
:100FA0000319DD2F0310F908031DD92FF8080319C1
:100FB000DD2FF90CF80CF70BD22FB11FE42FF80935
:100FC000F909F80A0319F90A031308000330031793
:100FD000A002031CF52F203084008317000803199A
:100FE000F52FF32F0000800BF22F031308000C29BC
:0A0FF000E530E43C2E172E0500004A
:10100000040803179400831603136F088312031751
:101010009600031928281308B3001208B20011081B
:10102000B1001008B000B701B6012030B500823021
:10103000B4008A11031342208A157A08031793001B
:10104000790892007808910077089000960B0B2899
:101050001308A00012089F0011089E0010089D00B0
:101060008A11031323248A157A0803179300790839
:1010700092007808910077089000931F4C28940301
:1010800094169009910992099309900A0319910AFB
:101090000319920A0319930A3B309B009A309A0075
:1010A000CA30990098010A309600831603136F081E
:1010B000031D5F2883120317940A831603138314F6
:1010C000103084008317831203171308A00012083E
:1010D0009F0011089E0010089D001B08A4001A081C
:1010E000A3001908A2001808A1008A1103134424C0
:1010F0008A157808F708031D962883166F0A83124D
:1011000003171602031D86280313962814080319D3
:1011100099280F39160203198F280318EB28941BFE
:10112000EB28141B99282030E428031320300317E0
:101130009405941EB3289412831603136F080319A1
:10114000A6288312031794038316031377088312C8
:10115000031794002D3003130C1EAC2899000317BD
:101160001408F7009401831603136F088312031702
:101170001602031DC828770894002E3003130C1E96
:10118000BF28990003171408F70020309405003099
:101190003030941EE4289412831603136F08031949
:1011A000D628831203179403831603137708831238
:1011B000031794002D3003130C1EDC28990003172D
:1011C0001408F70094013030F707770803130C1E5A
:1011D000E7289900031783101B08A0001A089F0036
:1011E00019089E0018089D00A401A301A2010A305D
:1011F000A1008A11031344248A157A0803179B005F
:1012000079089A007808990077089800960B0929C0
:101210000C29831603135F28031308008030831CF6
:1012200014290317B90603130317BE01BF013508BC
:10123000BD003908BD0634080319022ABC00F700B6
:10124000380803190B2ABC020319A729031C6529B6
:101250003908C200C2173A08C1003B08C000BF01EC
:101260000310C20CC10CC00CBF0CBC0B2F29BD1F3E
:101270003C293E141F2A3E103C103E163730840095
:101280008317342A3E12BD1B4F293C1C5A29C20C1D
:10129000C10CC00CBF0CF70A03191A2A5A29C21B29
:1012A0005D290310BF0DC00DC10DC20DF703031959
:1012B0001A2A4F293E17C7293E133508BD00BD1F06
:1012C0006329C217132AC213132A3808BC00F70077
:1012D0003408BC023508C200C2173608C1003708FE
:1012E000C000BF010310C20CC10CC00CBF0CBC0B72
:1012F0007129BD1F7E29BE141F2ABE103C10BE16C8
:101300003B3084008317342ABE12BD1B91293C1C3C
:101310009C29C20CC10CC00CBF0CF70A03191A2A75
:101320009C29C21B9F290310BF0DC00DC10DC20D0A
:10133000F70303191A2A9129BE17C729BE133908C2
:10134000BD00BD1FA529C217132AC213132A3908CD
:10135000C200C2173A08C1003B08C000BD1FB42933
:10136000C2133E151F2A3E11BF013C1037308400C6
:101370008317342ABD1BDD293508BD003C1CC72955
:10138000C20CC10CC00CBF0CF70A03191A2ABF1FEC
:10139000D829C00A031DD829C10A031DD829C20AA9
:1013A000031DD829C20CC10CC00CF70A03191A2A54
:1013B0003E1B5C29BE1B9E29FC298030C206C21F31
:1013C000E5291F2A3908BD00F2293508BD00C208E9
:1013D000031DF229C108031DF229C008031DF229CB
:1013E000F701132AC21BFC290310BF0DC00DC10D4C
:1013F000C20DF70BF2291A2ABD1F002AC217132AA1
:10140000C213132A3808F7003908C2003A08C1008D
:101410003B08C000132A3408F7003508C20036081C
:10142000C1003708C0004208F8004108F900400830
:10143000FA00522AF701F801F901FA01522ABF0114
:10144000C009C109C209BF09BF0A031D2D2AC00A6C
:10145000031D2D2AC10A0319C20A3E183B29BE18D2
:101460007D293E19B329E2290008C007031C3E2A42
:10147000C10A031D3E2AC20A03193C148403000852
:10148000C107031C462AC20A03193C14840300083E
:10149000801F803AC20703183C143E1A4229BE1A24
:1014A0008429BA290313080003173108B800350846
:1014B000B806B81F602A03110310B11B0314932A46
:1014C0003108B8003408B9003008B90203196E2A8F
:1014D000B81F932A0308013A8300932A3508B900FC
:1014E0003108B90203197A2AB81F932A0308013A6E
:1014F0008300932A3608B9003208B9020319862AF4
:10150000B81F932A0308013A8300932A3708B900C9
:101510003308B9020319922AB81F932A0308013A23
:101520008300932A03100313080003171F08A30066
:101530001E08A2001D08A1001C08A0000130A40084
:101540002F102308A8002208A7002108A6002008C1
:10155000A5002308B3002208B2002108B10020082A
:10156000B000B701B601B501B40103135422031C46
:10157000BF2A03172F142608803AA6000313031767
:101580002808B3002708B2002608B1002508B000DB
:10159000B701B601B5018E30B4000313542203180D
:1015A000D32A031DF42A03172808B3002708B20022
:1015B0002608B1002508B0008A110313C5278A1533
:1015C00079080317B5007808B4008A1103132320A3
:1015D0008A157A080317AC007908AB007808AA00CE
:1015E0007708A900DE2B031303172808B300270888
:1015F000B2002608B1002508B0008030B700963050
:10160000B6001830B5009630B40003135422031C02
:10161000D52B03172808B3002708B2002608B1000D
:101620002508B000B701B601B5017030B4008A11C9
:10163000031342208A157A080317B3007908B20011
:101640007808B1007708B0008A110313C5278A15FE
:1016500079080317AE007808AD002808B300270802
:10166000B2002608B1002508B000B701B601B501E7
:101670007030B4008A11031342208A157A080317C8
:10168000B3007908B2007808B1007708B0002E08DE
:10169000B5002D08B4008A11031323208A15831482
:1016A00003173308B7003208B6003108B500300818
:1016B000B4007A08BB007908BA007808B900770846
:1016C000B80003130E210317B301B201B1018E302C
:1016D000B0007A08B7007908B6007808B500770836
:1016E000B4008A11031342208A157A080317A80050
:1016F0007908A7007808A6007708A5002E08B5008D
:101700002D08B4008A11031323208A150317B3018F
:10171000B201B1018E30B0007A08B7007908B60086
:101720007808B5007708B4008A11031342208A159F
:101730007A080317AC007908AB007808AA0077088C
:10174000A9002808B3002708B2002608B100250820
:10175000B0008A110313C5278A1579080317B5004D
:101760007808B4008A11031323208A158310031705
:101770002C08B7002B08B6002A08B5002908B400C9
:101780007A08BB007908BA007808B9007708B80071
:1017900003130E217A080317AC007908AB00780810
:1017A000AA007708A900DE2B031303172808AC0052
:1017B0002708AB002608AA002508A9002808B300BE
:1017C0002708B2002608B1002508B0008A110313CB
:1017D000C5278A1579080317B5007808B4008A115F
:1017E000031323208A15831403172808B70027083A
:1017F000B6002608B5002508B4007A08BB007908B1
:10180000BA007808B9007708B80003130E217A08E7
:101810000317A8007908A7007808A6007708A50094
:101820002F1C152C2A08803AAA002808B300270884
:10183000B2002608B1002508B000B701B601B50115
:10184000B401031354220319622C03172F1C442CD8
:10185000A408031D442C83142C08B7002B08B600E1
:101860002A08B5002908B400BB01BA01B9017F30CC
:10187000B80003130E217A080317AC007908AB00F7
:101880007808AA007708A9002F18612C240B612C76
:1018900083102C08B7002B08B6002A08B5002908C9
:1018A000B400BB01BA01B9017F30B80003130E21A7
:1018B0007A080317AC007908AB007808AA0077080B
:1018C000A900031303172308B3002208B20021085C
:1018D000B1002008B000B701B601B501B40103138F
:1018E0005422031D792C0317AC01AB01AA01A901F5
:1018F000031303172908F7002A08F8002B08F9003A
:101900002C08FA00031308000C2141264C102D105E
:10191000C222C126200028308316B6000C30B70042
:101920000130B8000630B90083120811831608117F
:1019300083120810831608108312881083168810EB
:1019400088110812881208130811081088100F3027
:10195000E3008A1183120E208A1501308316B50028
:101960003508033C031CF52C0330EA006A18BC2C34
:1019700083128811BE2C8316831288158316881152
:10198000EA18C62C83120812C82C83168312081674
:10199000831608126A19D02C83128812D22C83164F
:1019A0008312881683168812EA19DA2C8312081318
:1019B000DC2C831683120817831608130000831289
:1019C0000815831608110230F700F70BE52C00000C
:1019D00083120811831608110530E3008A1183125F
:1019E0000E208A158316B50AB02C0230EA006A1858
:1019F000FD2C83128811FF2C831683128815831601
:101A00008811EA18072D83120812092D83168312F4
:101A10000816831608126A19112D83128812132DC5
:101A200083168312881683168812EA191B2D8312D7
:101A300008131D2D83168312081783160813000040
:101A400083120815831608110230F700F70B262DB4
:101A5000000083120811831608110530E3008A1173
:101A600083120E208A158316B5013508033C031C2A
:101A7000492DB6303507840083130008BA00E7010A
:101A80003A08E8008A118312A3228A158316B50A40
:101A9000352D83128A150A12BE2D03081F398300C3
:101AA000831603178715A0300313990001309A009D
:101AB000A6309800903083129800B801B701B601A3
:101AC000B501BC01BB01BA01B901C001BF01BE0132
:101AD000BD01C401C3015030C2008230C100CD300D
:101AE000C800CC30C7000C30C6007F30C5009A302B
:101AF000CC009930CB004930CA008130C900D001F8
:101B0000CF01CE01CD01D401D301D201D101D80141
:101B1000D701D601D501DC01DB01DA01D901E001F1
:101B2000DF01DE01DD01E401E301E201E101E801A1
:101B3000E701E601E501EC01EB01EA01E901F00151
:101B4000EF01EE01ED01F301F201F501F401FF30C7
:101B5000F600FC01FB01831603170908C039890050
:101B600003131F129F12003003178800831287018E
:101B7000880189018313051003138B2CF730031799
:101B80008D0007308F0003130B088316B5008312F6
:101B90008B13831603178C170C140000000003131B
:101BA000B51FD52D83128B178316831203170C08CC
:101BB0007F390319382E83160313B50083120317D8
:101BC0000D0883160313B600831203170F0883163C
:101BD0000313B7003508E2008A118312C9238A155E
:101BE00083163608831203178D00831603133708F4
:101BF000831203178F0003130B088316B800831298
:101C00008B13831603178C170C14000000000313AA
:101C1000B81F0D2E83128B178316831203170C0D1A
:101C20000E0D7F390319382E83160313B500831266
:101C300003170D0883160313B600831203170F084A
:101C400083160313B7003508E2008A118312C923F3
:101C50008A1583163608831203178D008316031323
:101C60003708831203178F008D0A03198F0AC32DBB
:101C700003131F179F1783169F1783121F14843097
:101C800003178D000C308F0003130B088316B5006B
:101C900083128B13831603178C170C14000000009B
:101CA0000313B51F562E83128B1783168312031747
:101CB0000C087F390319B92E83160313B50083125C
:101CC00003170D0883160313B600831203170F08BA
:101CD00083160313B7003508E2008A118312C92363
:101CE0008A1583163608831203178D008316031393
:101CF0003708831203178F0003130B088316B800ED
:101D000083128B13831603178C170C14000000002A
:101D10000313B81F8E2E83128B178316831203179B
:101D20000C0D0E0D7F390319B92E83160313B50060
:101D3000831203170D0883160313B60083120317CB
:101D40000F0883160313B7003508E2008A118312C7
:101D5000C9238A1583163608831203178D0083164C
:101D600003133708831203178F008D0A03198F0A94
:101D7000442E83160313A001A2010530A100A40183
:101D8000A301B930A5000030A600A701A9010A30BF
:101D9000A800AB010230AA00B630AC000530AD009F
:101DA000AE01B0010530AF00B2010130B10000302A
:101DB000B3001030B4008312A0010030F80078089E
:101DC00006389200F9308316920083128C100310AB
:101DD000200DF7008A1104208A15F90001307707D9
:101DE0008A1104208A15FA007908840083137A186E
:101DF00083170008F900840A0008F700840A000825
:101E0000F800840A800A0008FA00031D0A2F840AD9
:101E1000800A8403840A00087802031D222F7708B1
:101E20007A02031D222F84038001840A8001840A20
:101E3000F91B222F840A00088A008403000882000C
:101E400083120313A00A03302002031DE72EA00112
:101E50008C18E62E282FFF30A00000308316880053
:041E6000302F6300BC
:10200000893084002408031793000313230803175F
:1020100092000313220803179100031321080317EA
:102020009000023083160313EF000A128A15831200
:1020300000200A168A112C300C1E1C2899008930A9
:1020400084002C080317930003132B080317920036
:1020500003132A080317910003132908031790009C
:10206000023083160313EF000A128A158312002030
:102070000A168A110A300C1E3B2899002C080317F7
:10208000930003132B080317920003132A08031766
:102090009100031329080317900003132408031762
:1020A000970003132308031796000313220803174E
:1020B0009500031321080317940083141308B70035
:1020C0001208B6001108B5001008B4001708BB00CC
:1020D0001608BA001508B9001408B8000A128A15C3
:1020E00003130E210A168A117A08D0007908CF004E
:1020F0007808CE007708CD0044080317B300031317
:1021000043080317B200031342080317B100031377
:1021100041080317B000031350080317B700031357
:102120004F080317B60003134E080317B500031337
:102130004D080317B4000A12031342200A167A0846
:10214000D4007908D3007808D2007708D100F108CC
:10215000031D1229EC300317B3005130B2003830A0
:10216000B1007B30B000031348080317B700031316
:1021700047080317B600031346080317B5000313F7
:1021800045080317B4000A12031342200A167A08FE
:1021900003179B0079089A0078089900770898003F
:1021A0001B08B3001A08B2001908B1001808B000E3
:1021B000031350080317B70003134F080317B600A3
:1021C00003134E080317B50003134D080317B4009B
:1021D0000A12031342200A16831064080317B7007B
:1021E000031363080317B600031362080317B5004F
:1021F000031361080317B4007A08BB007908BA001A
:102200007808B9007708B8000A128A1503130E215E
:102210000A168A117A08D8007908D7007808D600FB
:102220007708D5004C080317B30003134B080317B6
:10223000B20003134A080317B10003134908031738
:10224000B000EC30B7005130B6003830B5007B300C
:10225000B4000A120313D7210A167A0803179B0049
:1022600079089A0078089900770898008314130871
:10227000B7001208B6001108B5001008B400031327
:1022800030080317BB0003132F080317BA0003130A
:102290002E080317B90003132D080317B8000A12FC
:1022A0008A1503130E210A168A1103171B08B3009F
:1022B0001A08B2001908B1001808B0007A08B7006F
:1022C0007908B6007808B5007708B4000A1203133D
:1022D00042200A167A08DC007908DB007808DA0068
:1022E0007708D90029300317B3005C30B2000F30F3
:1022F000B1007E30B00003135C080317B70003136E
:102300005B080317B60003135A080317B50003133D
:1023100059080317B4000A12031342200A167A0858
:1023200003179B0079089A007808990077089800AD
:10233000AE30B3004730B2006130B1007D30B00044
:1023400003136C080317B70003136B080317B600D9
:1023500003136A080317B500031369080317B400D1
:102360000A12031342200A16831003171B08B70032
:102370001A08B6001908B5001808B4007A08BB009E
:102380007908BA007808B9007708B8000A128A15E7
:1023900003130E210A168A117A08DC007908DB0083
:1023A0007808DA007708D900831054080317B700BB
:1023B000031353080317B600031352080317B5009D
:1023C000031351080317B400031358080317BB0085
:1023D000031357080317BA00031356080317B9006D
:1023E000031355080317B8000A128A1503130E21A8
:1023F0000A168A117A0803179B0079089A00780850
:1024000099007708980083101B08B7001A08B600D7
:102410001908B5001808B40003135C080317BB00C3
:1024200003135B080317BA0003135A080317B90014
:10243000031359080317B8000A128A1503130E2153
:102440000A168A117A08E0007908DF007808DE00B1
:102450007708DD0060080317B30003135F08031754
:10246000B20003135E080317B10003135D080317DE
:10247000B000F830B7005330B6009330B5007F306D
:10248000B4000A128A15031354220A168A11031C77
:10249000542AF830E0005330DF009330DE007F3004
:1024A000DD000130F1007F2AF8300317B30053300C
:1024B000B2001330B1007F30B0000313600803177F
:1024C000B70003135F080317B60003135E08031772
:1024D000B50003135D080317B4000A128A1503132D
:1024E00054220A168A11031C7F2AF830E000533068
:1024F000DF001330DE007F30DD000130F1006008C6
:102500000317B30003135F080317B20003135E0839
:102510000317B10003135D080317B000B701B6013C
:102520003430B5008630B4000A12031342200A1674
:102530007A0803179B0079089A00780899007708B1
:1025400098001B08B3001A08B2001908B100180857
:10255000B000C330B700F530B6004830B500803069
:10256000B4000A120313D7210A167A0803179B0036
:1025700079089A0078089900770898001B089F004E
:102580001A089E0019089D0018089C000A128A1556
:10259000031395220A168A117A08E0007908DF00F1
:1025A0007808DE007708DD00600803179B0003133E
:1025B0005F0803179A0003135E08031799000313BB
:1025C0005D08031798009F019E0184309D008530AF
:1025D0009C00A301A2010430A1008530A000A70146
:1025E000A601A5017F30A400AB01AA013430A900E7
:1025F0008530A80083142B08B7002A08B6002908E4
:10260000B5002808B4002708BB002608BA00250832
:10261000B9002408B8000A128A1503130E210A16FD
:102620008A117A080317AF007908AE007808AD0068
:102630007708AC0083142308B7002208B6002108ED
:10264000B5002008B4001F08BB001E08BA001D0812
:10265000B9001C08B8000A128A1503130E210A16C5
:102660008A1103172F08B3002E08B2002D08B100FD
:102670002C08B0007A08B7007908B6007808B500D1
:102680007708B4000A120313D7210A167A08031731
:10269000AF007908AE007808AD007708AC0083146D
:1026A0001B08B7001A08B6001908B5001808B400CE
:1026B0001F08BB001E08BA001D08B9001C08B8009E
:1026C0000A128A1503130E210A168A1103172F08FE
:1026D000B3002E08B2002D08B1002C08B0007A0813
:1026E000B7007908B6007808B5007708B4000A1278
:1026F000031342200A16831003172708B700260881
:10270000B6002508B5002408B4007A08BB00790893
:10271000BA007808B9007708B8000A128A150313BE
:102720000E210A168A117A08E0007908DF0078087D
:10273000DE007708DD0060080317B30003135F08AD
:102740000317B20003135E080317B10003135D08FB
:102750000317B000B701B601B501B4010A128A151A
:10276000031354220A168A11031CBC2BE001DF015B
:10277000DE017F30DD00E12B0317B301B2013430FD
:10278000B1008530B000031360080317B7000313CE
:102790005F080317B60003135E080317B5000313A1
:1027A0005D080317B4000A128A15031354220A168F
:1027B0008A11031CE12BE001DF013430DE0085309B
:1027C000DD004D08F7004E08F8004F08F9005008EA
:1027D000FA00F8137A0803179B0079089A00780822
:1027E0009900770898000A30B300D730B200233040
:1027F000B1007930B0001B08B7001A08B6001908FC
:10280000B5001808B4000A128A15031354220A16D8
:102810008A11031CA72C600803179F0003135F088D
:1028200003179E0003135E0803179D0003135D0842
:1028300003179C000A128A15031395220A168A119F
:102840007A080317B3007908B2007808B100770856
:10285000B0000A120313C5270A1679080317990056
:102860007808980019089B0018089A001B089E0019
:102870001A089D00A0010B309F001030A100F70145
:10288000FA019E0C9D0C031C4B2C1F08F707031824
:10289000FA0A2008FA07FA0CF70CF90CF80CA10B4D
:1028A000412C79089B0078089A009C011C083B3C4D
:1028B000031CA62C76117608831603138700831257
:1028C0000715903003171A079D001B089E00013062
:1028D000031802309E071E089F009F0A9F030319DA
:1028E000792CFF30A0000A120313E6270A160317FB
:1028F0006E2C1D08A0000A120313E6270A16761193
:102900007608831687008312071103171A08803C84
:102910009D003E309E001B08031C1B0F9E021E08DC
:102920009F009F0A9F0303199D2CFF30A0000A12ED
:102930000313E6270A160317922C1D08A0000A129B
:102940000313E6270A1603179C0A562C031358088C
:10295000E4005708E3005608E2005508E1002C089F
:10296000B0002B08AF002A08AE002908AD005C08B3
:10297000EC005B08EB005A08EA005908E90024085B
:10298000A8002308A7002208A6002108A5005008D7
:10299000F0004F08EF004E08EE004D08ED0000304B
:1029A0008316B3001030B4008A150A128312202F48
:04400E00EA2FFF3F57
:00000001FF
;PIC16F887
;CRC=CB12  CREATED="04-Oca-24 08:24"
